{
  "_format": "hh-sol-artifact-1",
  "contractName": "LoanRegistry",
  "sourceName": "contracts/LoanRegistry.sol",
  "abi": [
    {
      "anonymous": false,
      "inputs": [
        {
          "indexed": true,
          "internalType": "uint256",
          "name": "loanId",
          "type": "uint256"
        },
        {
          "indexed": true,
          "internalType": "address",
          "name": "borrower",
          "type": "address"
        },
        {
          "indexed": true,
          "internalType": "address",
          "name": "lender",
          "type": "address"
        }
      ],
      "name": "LoanRegistered",
      "type": "event"
    },
    {
      "anonymous": false,
      "inputs": [
        {
          "indexed": true,
          "internalType": "uint256",
          "name": "loanId",
          "type": "uint256"
        },
        {
          "indexed": false,
          "internalType": "uint256",
          "name": "amount",
          "type": "uint256"
        },
        {
          "indexed": false,
          "internalType": "uint256",
          "name": "timestamp",
          "type": "uint256"
        }
      ],
      "name": "PaymentRecorded",
      "type": "event"
    },
    {
      "inputs": [
        {
          "internalType": "uint256",
          "name": "_loanId",
          "type": "uint256"
        }
      ],
      "name": "getLoanPayments",
      "outputs": [
        {
          "components": [
            {
              "internalType": "uint256",
              "name": "loanId",
              "type": "uint256"
            },
            {
              "internalType": "uint256",
              "name": "amount",
              "type": "uint256"
            },
            {
              "internalType": "uint256",
              "name": "timestamp",
              "type": "uint256"
            },
            {
              "internalType": "bool",
              "name": "verified",
              "type": "bool"
            }
          ],
          "internalType": "struct LoanRegistry.Payment[]",
          "name": "",
          "type": "tuple[]"
        }
      ],
      "stateMutability": "view",
      "type": "function"
    },
    {
      "inputs": [],
      "name": "loanCount",
      "outputs": [
        {
          "internalType": "uint256",
          "name": "",
          "type": "uint256"
        }
      ],
      "stateMutability": "view",
      "type": "function"
    },
    {
      "inputs": [
        {
          "internalType": "uint256",
          "name": "",
          "type": "uint256"
        },
        {
          "internalType": "uint256",
          "name": "",
          "type": "uint256"
        }
      ],
      "name": "loanPayments",
      "outputs": [
        {
          "internalType": "uint256",
          "name": "loanId",
          "type": "uint256"
        },
        {
          "internalType": "uint256",
          "name": "amount",
          "type": "uint256"
        },
        {
          "internalType": "uint256",
          "name": "timestamp",
          "type": "uint256"
        },
        {
          "internalType": "bool",
          "name": "verified",
          "type": "bool"
        }
      ],
      "stateMutability": "view",
      "type": "function"
    },
    {
      "inputs": [
        {
          "internalType": "uint256",
          "name": "",
          "type": "uint256"
        }
      ],
      "name": "loans",
      "outputs": [
        {
          "internalType": "address",
          "name": "borrower",
          "type": "address"
        },
        {
          "internalType": "address",
          "name": "lender",
          "type": "address"
        },
        {
          "internalType": "uint256",
          "name": "amount",
          "type": "uint256"
        },
        {
          "internalType": "uint256",
          "name": "interestRate",
          "type": "uint256"
        },
        {
          "internalType": "uint256",
          "name": "term",
          "type": "uint256"
        },
        {
          "internalType": "uint256",
          "name": "startDate",
          "type": "uint256"
        },
        {
          "internalType": "uint256",
          "name": "nftId",
          "type": "uint256"
        },
        {
          "internalType": "string",
          "name": "xrplTxHash",
          "type": "string"
        }
      ],
      "stateMutability": "view",
      "type": "function"
    },
    {
      "inputs": [
        {
          "internalType": "uint256",
          "name": "_loanId",
          "type": "uint256"
        },
        {
          "internalType": "uint256",
          "name": "_amount",
          "type": "uint256"
        }
      ],
      "name": "recordPayment",
      "outputs": [],
      "stateMutability": "nonpayable",
      "type": "function"
    },
    {
      "inputs": [
        {
          "internalType": "address",
          "name": "_lender",
          "type": "address"
        },
        {
          "internalType": "uint256",
          "name": "_amount",
          "type": "uint256"
        },
        {
          "internalType": "uint256",
          "name": "_interestRate",
          "type": "uint256"
        },
        {
          "internalType": "uint256",
          "name": "_term",
          "type": "uint256"
        },
        {
          "internalType": "uint256",
          "name": "_nftId",
          "type": "uint256"
        },
        {
          "internalType": "string",
          "name": "_xrplTxHash",
          "type": "string"
        }
      ],
      "name": "registerLoan",
      "outputs": [
        {
          "internalType": "uint256",
          "name": "",
          "type": "uint256"
        }
      ],
      "stateMutability": "nonpayable",
      "type": "function"
    },
    {
      "inputs": [
        {
          "internalType": "uint256",
          "name": "_loanId",
          "type": "uint256"
        },
        {
          "internalType": "uint256",
          "name": "_paymentIndex",
          "type": "uint256"
        }
      ],
      "name": "verifyPayment",
      "outputs": [],
      "stateMutability": "nonpayable",
      "type": "function"
    }
  ],
  "bytecode": "0x608060405234801561001057600080fd5b5061135d806100206000396000f3fe608060405234801561001057600080fd5b506004361061007d5760003560e01c8063ce4731141161005b578063ce47311414610101578063ce63094d14610131578063e1ec3c681461014f578063ebda2fee146101865761007d565b80630b879bc21461008257806370dfcea21461009e578063af3d3e98146100ce575b600080fd5b61009c6004803603810190610097919061089b565b6101a2565b005b6100b860048036038101906100b39190610a7f565b610368565b6040516100c59190610b37565b60405180910390f35b6100e860048036038101906100e3919061089b565b610541565b6040516100f89493929190610b6d565b60405180910390f35b61011b60048036038101906101169190610bb2565b61059b565b6040516101289190610d01565b60405180910390f35b610139610646565b6040516101469190610b37565b60405180910390f35b61016960048036038101906101649190610bb2565b61064c565b60405161017d989796959493929190610db1565b60405180910390f35b6101a0600480360381019061019b919061089b565b61075c565b005b6002548211156101e7576040517f08c379a00000000000000000000000000000000000000000000000000000000081526004016101de90610e82565b60405180910390fd5b3373ffffffffffffffffffffffffffffffffffffffff1660008084815260200190815260200160002060000160009054906101000a900473ffffffffffffffffffffffffffffffffffffffff1673ffffffffffffffffffffffffffffffffffffffff161461028a576040517f08c379a000000000000000000000000000000000000000000000000000000000815260040161028190610eee565b60405180910390fd5b60016000838152602001908152602001600020604051806080016040528084815260200183815260200142815260200160001515815250908060018154018082558091505060019003906000526020600020906004020160009091909190915060008201518160000155602082015181600101556040820151816002015560608201518160030160006101000a81548160ff0219169083151502179055505050817f5c6242d6a3f0201795f1790f1a8966d39815f3483e3a7f93a8f730ab673ee9b6824260405161035c929190610f0e565b60405180910390a25050565b60006002600081548092919061037d90610f66565b91905055506040518061010001604052803373ffffffffffffffffffffffffffffffffffffffff1681526020018873ffffffffffffffffffffffffffffffffffffffff16815260200187815260200186815260200185815260200142815260200184815260200183815250600080600254815260200190815260200160002060008201518160000160006101000a81548173ffffffffffffffffffffffffffffffffffffffff021916908373ffffffffffffffffffffffffffffffffffffffff16021790555060208201518160010160006101000a81548173ffffffffffffffffffffffffffffffffffffffff021916908373ffffffffffffffffffffffffffffffffffffffff16021790555060408201518160020155606082015181600301556080820151816004015560a0820151816005015560c0820151816006015560e08201518160070190816104d191906111ba565b509050508673ffffffffffffffffffffffffffffffffffffffff163373ffffffffffffffffffffffffffffffffffffffff166002547f819b1fcbd6cd04d9cd0b36b1673b01d90f97cf77c0b4f7193e5ae4e87f0e57cd60405160405180910390a460025490509695505050505050565b6001602052816000526040600020818154811061055d57600080fd5b9060005260206000209060040201600091509150508060000154908060010154908060020154908060030160009054906101000a900460ff16905084565b606060016000838152602001908152602001600020805480602002602001604051908101604052809291908181526020016000905b8282101561063b57838290600052602060002090600402016040518060800160405290816000820154815260200160018201548152602001600282015481526020016003820160009054906101000a900460ff161515151581525050815260200190600101906105d0565b505050509050919050565b60025481565b60006020528060005260406000206000915090508060000160009054906101000a900473ffffffffffffffffffffffffffffffffffffffff16908060010160009054906101000a900473ffffffffffffffffffffffffffffffffffffffff16908060020154908060030154908060040154908060050154908060060154908060070180546106d990610fdd565b80601f016020809104026020016040519081016040528092919081815260200182805461070590610fdd565b80156107525780601f1061072757610100808354040283529160200191610752565b820191906000526020600020905b81548152906001019060200180831161073557829003601f168201915b5050505050905088565b60008083815260200190815260200160002060010160009054906101000a900473ffffffffffffffffffffffffffffffffffffffff1673ffffffffffffffffffffffffffffffffffffffff163373ffffffffffffffffffffffffffffffffffffffff16146107ff576040517f08c379a00000000000000000000000000000000000000000000000000000000081526004016107f6906112d8565b60405180910390fd5b60018060008481526020019081526020016000208281548110610825576108246112f8565b5b906000526020600020906004020160030160006101000a81548160ff0219169083151502179055505050565b6000604051905090565b600080fd5b600080fd5b6000819050919050565b61087881610865565b811461088357600080fd5b50565b6000813590506108958161086f565b92915050565b600080604083850312156108b2576108b161085b565b5b60006108c085828601610886565b92505060206108d185828601610886565b9150509250929050565b600073ffffffffffffffffffffffffffffffffffffffff82169050919050565b6000610906826108db565b9050919050565b610916816108fb565b811461092157600080fd5b50565b6000813590506109338161090d565b92915050565b600080fd5b600080fd5b6000601f19601f8301169050919050565b7f4e487b7100000000000000000000000000000000000000000000000000000000600052604160045260246000fd5b61098c82610943565b810181811067ffffffffffffffff821117156109ab576109aa610954565b5b80604052505050565b60006109be610851565b90506109ca8282610983565b919050565b600067ffffffffffffffff8211156109ea576109e9610954565b5b6109f382610943565b9050602081019050919050565b82818337600083830152505050565b6000610a22610a1d846109cf565b6109b4565b905082815260208101848484011115610a3e57610a3d61093e565b5b610a49848285610a00565b509392505050565b600082601f830112610a6657610a65610939565b5b8135610a76848260208601610a0f565b91505092915050565b60008060008060008060c08789031215610a9c57610a9b61085b565b5b6000610aaa89828a01610924565b9650506020610abb89828a01610886565b9550506040610acc89828a01610886565b9450506060610add89828a01610886565b9350506080610aee89828a01610886565b92505060a087013567ffffffffffffffff811115610b0f57610b0e610860565b5b610b1b89828a01610a51565b9150509295509295509295565b610b3181610865565b82525050565b6000602082019050610b4c6000830184610b28565b92915050565b60008115159050919050565b610b6781610b52565b82525050565b6000608082019050610b826000830187610b28565b610b8f6020830186610b28565b610b9c6040830185610b28565b610ba96060830184610b5e565b95945050505050565b600060208284031215610bc857610bc761085b565b5b6000610bd684828501610886565b91505092915050565b600081519050919050565b600082825260208201905092915050565b6000819050602082019050919050565b610c1481610865565b82525050565b610c2381610b52565b82525050565b608082016000820151610c3f6000850182610c0b565b506020820151610c526020850182610c0b565b506040820151610c656040850182610c0b565b506060820151610c786060850182610c1a565b50505050565b6000610c8a8383610c29565b60808301905092915050565b6000602082019050919050565b6000610cae82610bdf565b610cb88185610bea565b9350610cc383610bfb565b8060005b83811015610cf4578151610cdb8882610c7e565b9750610ce683610c96565b925050600181019050610cc7565b5085935050505092915050565b60006020820190508181036000830152610d1b8184610ca3565b905092915050565b610d2c816108fb565b82525050565b600081519050919050565b600082825260208201905092915050565b60005b83811015610d6c578082015181840152602081019050610d51565b60008484015250505050565b6000610d8382610d32565b610d8d8185610d3d565b9350610d9d818560208601610d4e565b610da681610943565b840191505092915050565b600061010082019050610dc7600083018b610d23565b610dd4602083018a610d23565b610de16040830189610b28565b610dee6060830188610b28565b610dfb6080830187610b28565b610e0860a0830186610b28565b610e1560c0830185610b28565b81810360e0830152610e278184610d78565b90509998505050505050505050565b7f4c6f616e20646f6573206e6f7420657869737400000000000000000000000000600082015250565b6000610e6c601383610d3d565b9150610e7782610e36565b602082019050919050565b60006020820190508181036000830152610e9b81610e5f565b9050919050565b7f4e6f742074686520626f72726f77657200000000000000000000000000000000600082015250565b6000610ed8601083610d3d565b9150610ee382610ea2565b602082019050919050565b60006020820190508181036000830152610f0781610ecb565b9050919050565b6000604082019050610f236000830185610b28565b610f306020830184610b28565b9392505050565b7f4e487b7100000000000000000000000000000000000000000000000000000000600052601160045260246000fd5b6000610f7182610865565b91507fffffffffffffffffffffffffffffffffffffffffffffffffffffffffffffffff8203610fa357610fa2610f37565b5b600182019050919050565b7f4e487b7100000000000000000000000000000000000000000000000000000000600052602260045260246000fd5b60006002820490506001821680610ff557607f821691505b60208210810361100857611007610fae565b5b50919050565b60008190508160005260206000209050919050565b60006020601f8301049050919050565b600082821b905092915050565b6000600883026110707fffffffffffffffffffffffffffffffffffffffffffffffffffffffffffffffff82611033565b61107a8683611033565b95508019841693508086168417925050509392505050565b6000819050919050565b60006110b76110b26110ad84610865565b611092565b610865565b9050919050565b6000819050919050565b6110d18361109c565b6110e56110dd826110be565b848454611040565b825550505050565b600090565b6110fa6110ed565b6111058184846110c8565b505050565b5b818110156111295761111e6000826110f2565b60018101905061110b565b5050565b601f82111561116e5761113f8161100e565b61114884611023565b81016020851015611157578190505b61116b61116385611023565b83018261110a565b50505b505050565b600082821c905092915050565b600061119160001984600802611173565b1980831691505092915050565b60006111aa8383611180565b9150826002028217905092915050565b6111c382610d32565b67ffffffffffffffff8111156111dc576111db610954565b5b6111e68254610fdd565b6111f182828561112d565b600060209050601f8311600181146112245760008415611212578287015190505b61121c858261119e565b865550611284565b601f1984166112328661100e565b60005b8281101561125a57848901518255600182019150602085019450602081019050611235565b868310156112775784890151611273601f891682611180565b8355505b6001600288020188555050505b505050505050565b7f4f6e6c79206c656e6465722063616e2076657269667900000000000000000000600082015250565b60006112c2601683610d3d565b91506112cd8261128c565b602082019050919050565b600060208201905081810360008301526112f1816112b5565b9050919050565b7f4e487b7100000000000000000000000000000000000000000000000000000000600052603260045260246000fdfea26469706673582212206f144eba8492a8c6ce911e19d73524001744d9f103344266719f69117419488c64736f6c63430008140033",
  "linkReferences": {},
  "deployedLinkReferences": {}
}